:1011A200CFCDCFCECCCE1209137C007D0A1209130B
:1011B200ED2430FF12159A1A22EAFF7E00D3940022
:1011C2007480948022EF24FFFDEE34FFFC22C2A53E
:1011D2008F80D2A712157FC2A722CFCDCFCECCCE81
:0511E200120913EF22C9
:08157F007F027EC7DEFEDFFCE7
:011587002241
:08000300C2A61211D002157F04
:08159A00D2A61211D002157F48
:10145900AE07EEFB7A0064017004ED148009EB64B9
:0E146900024A7009ED243F4480FF1200032266
:10151C007F381200037F0C1200037F061200037F3A
:04152C0001020003B5
:0A156100AC03121459AF0402159AEE
:0613D4008B3D8A3E893FBB
:1013DA00121459E4FDAB3DAA3EA93F8D82758300E4
:0C13EA001208D4FF600612159A0D80E96D
:0113F60022D4
:08133D008E428F438C448D4564
:101345007F017E00E4FBEBC39545E5446480F874BA
:0E1355008098500AAC42AD431209010B80E8AB
:011363002267
:041419008A3F8B403B
:10141D00121459AA411211BB40111211C77F0A12A1
:0B142D00133DAC3FAD401211A280EA5D
:011438002291
:04115C008B828A8375
:10116000121459C3E58364809480400D7F2B1215BF
:101170009A85834B85824C80107F2D12159AC3E48B
:101180009582F54CE49583F54BAA4A1211BB4011A8
:101190001211C77F0A12133DAC4BAD4C1211A28045
:0111A000EA64
:0111A100222B
:04122A008A568B57FE
:10122E00121459AA58EA1211BF4030EA24FFFDE405
:10123E0034FFFC7F107E0012133DAC56AD571211D9
:10124E00DC540FFEC3940A74809480EE5004243054
:0B125E0080022437FF12159A1A80CA84
:011269002262
:04138B008A5B8B5C92
:10138F00121459AA5D1211BB40161211C77F021217
:10139F00133DAC5BAD5C1211DC54011211B380E54F
:0113AF00221B
:0913F700074D160B0C0C3B3906E6
:10102C0075F00A1208B2FF3395E0FEEFC4F8540FC6
:10103C00C868FFEEC454F048FE2275F00A1208B2DC
:10104C00ADF0ED3395E0FCEF2DFDEE3CFC22120FE4
:10105C00DAEFC4540F75F00AA4FEEF540F2E22EDF4
:10106C00C394087480948022F582EF558224FF92F9
:02107C00B4229C
:0515BF00C2B5C2B62216
:060F28008C3D8D3EAB077D
:100F2E00D2B5E4FD12106B501C7E007401A80508AA
:100F3E008005C333CE33CED8F9FFEB121074D2B680
:100F4E00C2B60D80DFE4FD12106B50247E007401DA
:100F5E00A805088005C333CE33CED8F9FFE53D5E34
:100F6E00FEE53E5F4E24FF92B4D2B6C2B60D80D7D8
:020F7E00C2B5FA
:010F8000224E
:020FDA00AD0761
:100FDC00E4F9430501D2B5FBEB12106C501C7E00FA
:100FEC007401A803088005C333CE33CED8F9FFEDC6
:100FFC00121074C2B6D2B60B80DEE4FBEB12106C8E
:10100C005017D2B6C2B630B40DA8037401088002D2
:0F101C00C333D8FC42010B80E3C2B5C2B4AF01AD
:01102B0022A2
:100D8500E4FDFC7F8E120F28E54D12102CE54D1267
:100D950010467F8C120F28E54E12102CE54E1210CE
:100DA500467F88120F28E54F12102CE54F1210468A
:100DB5007F86120F28E55012102CE5501210467F41
:100DC50084120F28E55112102CE5511210467F822E
:100DD500120F28E55212102CE5521210467F801290
:100DE5000F28E55312102CE5531210467F8A120F77
:0A0DF500287D807C007F8E020F280D
:1012A9007F8C12105AF54D7F8812105AF54E7F86A1
:1012B90012105AF54F7F8412105AF5507F8212107E
:1012C9005AF5517F8012105AF5527F8A12105AF539
:0112D90053C1
:0112DA0022F1
:0A156B00EDFFC3E49F740194002219
:10000E005389F0438901758CFC758A66C28DD28C3A
:05001E00D2AFD2A922BF
:1014AC00AD075389F043890212156BF58CF58AC28E
:0814BC008DD28CD2AFD2A9221F
:1014F20053890F438910758DFC758B66C28FD28E0E
:05150200D2AFD2AB22C4
:1014C400AD0753890F43892012156BF58DF58BC237
:0814D4008FD28ED2AFD2AB2201
:100ABD0020202020002D00202020003A00202000A2
:100ACD00416C61726D20436C6F636B3A004F4E2029
:100ADD00004F46460054656D703A200048756D69AB
:100AED003A200020432020202000202520202020F7
:100AFD00002020202D2D54696D65722D2D20202074
:100B0D00002020416C61726D20436C6F636B20205F
:100B1D000020202D2D2D4C6F64696E672D2D20200A
:100B2D0000202020202020202020202020202020D8
:100B3D000054656D703A48756D693A43757272650A
:0E0B4D006E742057616B65205570210D0A00F3
:10140000051A000000000001220004120000000084
:051410000317000000BD
:100B5B00E54DFB3395E0FA75410222F816AF12EF23
:100B6B003395E0C36480948022AF4FEF3395E0FE62
:100B7B00D3EF227D0B7BFF7A0A79CA7F0222943B4B
:100B8B00EE6480948022AF4EEF3395E0FEEF227D32
:100B9B00087BFF7A0A79CA7F0222E53CC394027470
:100BAB0080948022AF4FEF3395E0FE4F22E54D75D9
:100BBB00F0041208B2AFF0EF3395E04F229417EE2A
:100BCB006480948022C3E53C940574809480227BDE
:100BDB00FF7D017F0122C394087480948022741AD4
:080BEB002522F8A607052222CD
:100968007F011209F47A0A79BD7D0D7F011213D433
:100978007D07120A027D0A120A027F021209F47A1E
:100988000A79C47D0D120A0E7D07120A0E7D0A7FB0
:10099800021213D4120B5B7D057F01121419E54E68
:1009A800120B5D7D087F01121419E54F120B5D7D56
:1009B8000B7F01121419E550120B5D7D057F0212A1
:1009C8001419E551120B5D7D087F02121419E552C6
:1009D800120B5D7D0B7F02121419E52160047B2A3E
:1009E80080027B207D107F02121561227BFF7A0A2C
:1009F80079BD7D011213D47BFF227BFF7A0A79C26D
:100A08007F011213D4227F021213D47BFF7A0A7952
:020A1800C822F2
:10002600E53B6402700DF53B0525E52575F0068474
:1000360085F025E53B64036003020130F53B744D12
:100046002525F806AF4D120B769463EE64809480F6
:100056004003E4F54DAF4E120B76940CEE6480949B
:10006600804003754E01120B9164014E6024EF64CB
:10007600034E601EEF64054E6018EF64074E601273
:10008600EF64084E600CEF640A4E6006EF640C4E97
:10009600700E120B74941FEE648094804054804F4F
:1000A600120B9164044E6012EF64064E600CEF640E
:1000B600094E6006EF640B4E700E120B74941EEE22
:1000C60064809480402C8027120B9164024E70222B
:1000D600120BB8700E120B74941DEE64809480405F
:1000E60011800C120B74941CEE648094804003758E
:1000F6004F01AF50120B76120BC84003E4F550AF18
:1001060051120B76120B894003E4F551AF52120BD4
:1001160076120B894003E4F552AF53120B7694071F
:10012600EE648094804003755301E53B64216003CF
:10013600020220F53B744D2525F816AF4DEF339599
:10014600E04F7003754D63AF4EEF3395E04F70038C
:10015600754E0C120B9164014E6024EF64034E60E1
:100166001EEF64054E6018EF64074E6012EF6408D8
:100176004E600CEF640A4E6006EF640C4E700FAFD3
:100186004FEF3395E04F706A754F1F0201F8120B5F
:100196009164044E6012EF64064E600CEF64094EE3
:1001A6006006EF640B4E7015120BAF600BD3EF9425
:1001B6001EEE64809480403A754F1E8035120B9176
:1001C60064024E702D120BB87015120BAF600BD374
:1001D600EF941DEE648094804018754F1D801312B5
:1001E6000BAF600BD3EF941CEE64809480400375D4
:1001F6004F1CAF50120B6A5003755017AF51120BBC
:100206006A500375513BAF52120B6A500375523B4D
:10021600AF53120B6A5003755307E525700DE511B0
:10022600640170077D051202E2800A120B5B7D05F0
:100236007F01121419E5256401700DE51164017042
:10024600077D081202E2800CE54E120B5D7D087FE9
:1002560001121419E52564027015E5116401700F89
:100266007BFF7A0A79CA7D0B7F011213D4800CE5D5
:100276004F120B5D7D0B7F01121419E52564037087
:1002860010E5116401700A7D05120B801213D480EB
:100296000CE550120B5D7D057F02121419E52564ED
:1002A60004700EE51164017008120B9A1213D480C3
:1002B6000CE551120B5D7D087F02121419E52564C9
:1002C60005700CE51164017006120B7E0213D4E56D
:1002D60052120B5D7D0B7F02121419227BFF7A0AE4
:0802E60079CA7F011213D42232
:100E6600E4FF12130D8F127F0112130D8F137F02F1
:100E760012130D8F147F0312130D8F157A0A79CD75
:100E8600120BDA1213D4E512120B5D7D057F0212E6
:100E96001419E513120B5D7D087F02121419E5146F
:100EA600120B5D7D0B7F02121419E5157BFF6006A0
:100EB6007A0A79DA80047A0A79DE7D0E7F011213C6
:020EC600D42234
:10111500E512FD3395E0FCE4FF1213B07F057E0078
:10112500121492E5137F0112114F121492E5147FE8
:101135000212114F121492E515FD3395E0FC7F0361
:101145001213B07F057E00021492FD3395E0FC1268
:0711550013B07F057E0022AC
:1005B800E53B64027007F53B0525532503E53B64DD
:1005C800037040F53B74122525F806AF12120B761E
:1005D800120BC84003E4F512AF13120B76120B8905
:1005E8004003E4F513AF14120B76120B894003E4B1
:1005F800F514AF15120B769401EE648094804003D5
:10060800E4F515E53B6421702CF53B7412252512A1
:100618000B665003751217AF13120B6A500375134C
:100628003BAF14120B6A500375143BAF15120B6ADB
:100638005003751501E5257010E5116401700A7DF8
:1006480005120B9C1213D4800CE512120B5D7D056C
:100658007F02121419E5256401700EE5116401701A
:1006680008120B9A1213D4800CE513120B5D7D0847
:100678007F02121419E5256402700EE511640170F9
:1006880008120B7E1213D4800CE514120B5D7D0B3F
:100698007F02121419E5256403700EE511640170D8
:1006A800087BFF7A0A79C48010E5157BFF60067A1B
:1006B8000A79DA80047A0A79DE7D0E7F011213D472
:0406C8007520012276
:1011E700E55065127032E5516513702CE5526514B0
:1011F7007026750F01F53DE53D120BE15008900B88
:101207005012122080F1E4F53DE53D120BA750087E
:08121700900B5812122080F127
:0B121F0022E53D93FF1215A2053D22C1
:10150700AF3BEF6403600AEF640260051215498080
:05151700EFE4F53B22AA
:1014390030A305751F018003E4F51FE53B641670B1
:101449000EF53BE52170047F0180027F008F212288
:0C126A00E5216030E527602CE51F6028BE
:10127600E4F53DE53D120BE15008900B5012129F2C
:1012860080F1E4F53DC3E53D120BA85008900B58DC
:0812960012129F80F0121507EF
:0B129E0022E53D93FF1215A2053D2242
:1002EE00E51B642060030203A0E51C14600F14607C
:1002FE001114601324037012E4F53C800D753C015B
:10030E008008753C028003753C03E51D7040741235
:10031E00253CF806AF12120B76120BC84003E4F51B
:10032E0012AF13120B76120B894003E4F513AF14C0
:10033E00120B76120B894003E4F514AF15120B76EF
:10034E009401EE64809480402FE4F515802A741297
:10035E00253C120B665003751217AF13120B6A5021
:10036E000375133BAF14120B6A500375143BAF1594
:10037E00120B6A5003751501E4F53C120BD0500EAA
:10038E00741A253CF8E6FF1215A2053C80ED752087
:10039E000122E51B6430600302042AE51C7012F58D
:1003AE003CC3E53C120BE25008900B48120445800A
:1003BE00F0E51D7030F53C120BD05008900B3E123C
:1003CE00044580F3E56012045CE56012042B7F2E79
:1003DE001215A2E56112042BE4F53C120BA5503C5C
:1003EE0012043880F6E4F53C120BD0500EE53C902A
:1003FE000B4393FF1215A2053C80EDE55E12045CE3
:10040E00E55E12044F7F2E1215A2E55F12044FE433
:0C041E00F53C120BA5500512043880F6C6
:10042A002275F00A84E5F02430FF1215A222E53C79
:10043A00900B5893FF1215A2053C22E53C93FF123C
:10044A0015A2053C2275F00A84E5F02430FF121546
:0D045A00A22275F00A842430FF1215A222A0
:1014DC00AF51EF3395E04F700CAF52EF3395E04FB7
:0614EC00700312154922F5
:0C153D00E5166007C28C120EC8D28C228A
:100D08007A0A79E2120BDA1213D47BFF7A0A79E9AC
:100D18007D017F021213D4E560FB7A007541027FE2
:100D280001120D7B7F01121561E561FB7A007541A7
:100D3800017D0A7F011214197BFF7A0A79F07D0B75
:100D48007F011213D4E55EFB7A007541027F02121F
:100D58000D7B7F02121561E55FFB7A007541017D0D
:100D68000A7F021214197BFF7A0A79F77D0B7F023A
:0D0D78000213D47D071214197B2E7D092271
:100F81007BFF7A0A79FE7D017F011213D47D011264
:100F91000FCE7D0D120FCE7B3A7D077F02121561B8
:100FA1007B3A7D0A7F02121561E517120B5D7D0503
:100FB1007F02121419E518120B5D7D087F021214CD
:100FC10019E519120B5D7D0B7F020214197BFF7A63
:090FD1000A79BD7F021213D4223B
:100C7F00753D0AE50E6051AF17120BB17012AD182A
:100C8F00ED3395E04D7009AD19ED3395E04D6038BA
:100C9F00E4F50E751001AD19ED3395E04D7027EFAA
:100CAF004E7009AF18EF3395E04F601A75193B1569
:100CBF0018AF18120B6A500EAF17EF3395E04F6055
:100CCF0005151775183B1519AF17EF3395E04F70D2
:100CDF0027AF18EF3395E04F701EAF19EF3395E044
:100CEF004F7015E5106011AF3D153DEF6005121502
:080CFF004980F4E4F51080D0F7
:010D070022C9
:1007DA00E53B6402700DF53B0525E52575F00384BC
:1007EA0085F025E53B6403702FF53B74172525F842
:1007FA0006AF17120B76120BC84003E4F517AF18B1
:10080A00120B76120B894003E4F518AF19120B7616
:10081A00120B894003E4F519E53B64217026F53B88
:10082A0074172525F816AF17120B6A500375171798
:10083A00AF18120B6A500375183BAF19120B6A50A6
:10084A000375193BE5257015E5116401700F7BFFEF
:10085A007A0A79CA7D057F021213D4800CE5171231
:10086A000B5D7D057F02121419E5256401700EE502
:10087A001164017008120B9A1213D4800CE5181235
:10088A000B5D7D087F02121419E5256402700CE5E0
:10089A001164017006120B7E0213D4E519120B5D66
:0808AA007D0B7F0212141922DC
:1006CC0012151C1215C912000E121477120D857B0F
:1006DC00FF7A0B790E7D017F011213D47BFF7A0B0D
:1006EC00791E7D017F021213D47FDC7E05121492D9
:1006FC007F011207CE7F021207CE12046712153D3E
:10070C001212A91214DC1211E712143912126AE532
:10071C00206006121115E4F520E515600DE50F605B
:10072C0009121507E4F50F752701E53B64017030DC
:10073C00F53B0523532303E52370028006E5236470
:10074C0001700AF524121549E4F5258013E523649C
:10075C000270028006E52364037005F52412154926
:10076C00E53B6404700EF53BE524700575240180AF
:10077C0003E4F524E52314602014602D1460302468
:10078C00036003020706E5246009120026120D859A
:10079C00020706120968020706E52460061205B86E
:1007AC00020706120E66020706120D08020706E57E
:1007BC002460061207DA020706120C7F120F810260
:0E07CC0007067BFF7A0B792E7D011213D422D3
:03000B00020A1ACC
:100A1A00C0E0C0F0C083C082C0D075D000C000C0A2
:0D0A2A0001C002C003C004C005C006C00723
:100A3700758A66758CFC0509E509700205081204BC
:100A470067C3E5099490E50894014012750800759D
:100A57000900E51170047F0180027F008F11050BEB
:100A6700E50B7002050AC394E8E50A940340127582
:100A77000A00750B00E51670047F0180027F008F66
:100A870016050DE50D7002050CC394E8E50C9403FB
:0B0A97004009750C00750D00750E0184
:100AA200D007D006D005D004D003D002D001D000A8
:0B0AB200D0D0D082D083D0F0D0E03252
:03002300020DFFCC
:100DFF00C0E0C0F0C083C082C0D075D000C000C0BA
:0D0E0F0001C002C003C004C005C006C0073A
:100E1C0030982CAF99E522FD7C00700AEF64AA7023
:100E2C0005120BE98017ED4C6013120BE9E52264F7
:0F0E3C0005700AEF64DD7005F5221202EEC29810
:100E4B00D007D006D005D004D003D002D001D000FB
:0B0E5B00D0D0D082D083D0F0D0E032A5
:0A149200EF1FAC0670011E4C600F46
:0D149C0000753E02753FC7D53FFDD53EFAF5
:0314A90080E722B7
:0315C900C2A42297
:0C154900D2A47F197E00121492C2A422CA
:1014770053877F75985053890F438920758BFD7566
:0B1487008DFDC2ABD28ED2AFD2AC22E2
:0815A2008F993099FDC29922D6
:03141500013B0098
:0815AA00D3940A74809480229E
:1004670030B009E4F52AF52EF52F8020E52A701C17
:10047700052FE52F7002052ED3940AE52E94004030
:100487000BE4F52EF52F752A01753B0130B133E4E6
:10049700F52BF530AF28D3EF940074809480406E2D
:1004A7000538E53870020537D394C8E5379400401E
:1004B7005DEF64017003753B02E4F537F538F52805
:1004C700804CE52B70200530E5301215AA403FE43B
:1004D700F530F537F5380528752B01E528640270E6
:1004E7002D753B168028C3E53094FA7480948050AC
:1004F70004053080190534E53470020533D394F4CC
:10050700E53394014008E4F533F534753BDE30B24A
:1005170033E4F52CF531AF29D3EF94007480948040
:10052700406E053AE53A70020539D394C8E5399427
:1005370000405DEF64017003753B03E4F539F53A5C
:10054700F529804CE52C70200531E5311215AA40BC
:100557003FE4F531F539F53A0529752C01E52964AC
:1005670002702D753B218028C3E53194FA7480947D
:10057700805004053180190536E53670020535D3FC
:1005870094F4E53594014008E4F535F536753B03F9
:1005970030B306E4F52DF53222E52D70130532D37D
:1005A700E5321215AB4009E4F532752D01753B04B0
:0105B7002221
:1013B0008F3D8C3E8D3F1215887FA01212DB1215D7
:1013C00055AF3D1212DB121555AF3F1212DB12154D
:0413D000550215B2FB
:02130D008F3D12
:10130F001215887FA01212DB121555AF3D1212DB9A
:10131F001215551215887FA11212DB1215551213D3
:0D132F00648F3E7F011215751215B2AF3E9E
:01133C00228E
:09158800D2A0D2A1C2A0C2A1228E
:0715B200C2A0D2A1D2A022C9
:0212DB00AD075D
:1012DD00E4FBEBC394087480948050237E007480EB
:1012ED00A803088006CEA2E713CE13D8F8FFEDF5BC
:0F12FD0082EF558224FF92A0D2A1C2A10B80D311
:01130C0022BE
:10136400E4FFD2A0FEEEC39408748094805017D298
:10137400A130A00DA8067480088002C313D8FC42D3
:0613840007C2A10E80DF8C
:01138A002240
:0A157500EF24FF92A0D2A1C2A12230
:0B155500D2A0D2A1A2A0E433FFC2A1EB
:011560002268
:081591007F247ED9DEFEDFFCA1
:01159900222F
:0415C4007F0BDFFEBC
:0115C8002200
:0515B900007F0FDFFEC2
:0115BE00220A
:0D153000D2B700C2B7121591D2B70215B99B
:1010CA00E4FFFE30B7120FBF00010E00D3EF94E821
:1010DA00EE940340EE7FFF22E4FEFF20B7120FBF1B
:1010EA0000010E00D3EF9464EE940040EE7FFE22DE
:1010FA00E4FEFF30B7120FBF00010E00D3EF946475
:0A110A00EE940040EE7FFD227F000E
:0111140022B8
:10107E00E4FBEBC3940874809480503D20B7120DAE
:10108E00BD00010C00D3ED9464EC940040EE7F00A3
:10109E00221215B9EE25E0FE30B71B430601E4FC23
:1010AE00FD30B7120DBD00010C00D3ED9464EC942D
:0B10BE000040EE7F00220B80B9AF065F
:0110C9002204
:100EC8001215301210CAEF3395E04F704D12107E94
:100ED8008F3D12107E8F3E12107E8F3F12107E8F34
:100EE8004012107E8F411215B9E53D253EFFE433CF
:100EF800FE7C00EF253FFFEC3EFEEF2540FFEC3E79
:100F0800FEEFB54112ECB5060E853D5E853E5F8568
:0F0F18003F6085406180067FFF227FFE227F00C1
:010F270022A7
:03000000020BF3FD
:0C0BF300787FE4F6D8FD758161020C3AB1
:1008B200C2D530F707B2D563F0FF05F030E70CB2CE
:1008C200D5F4048463F0FF05F080018430D502F48E
:0208D2000422FE
:1008D400BB010CE58229F582E5833AF583E02250D9
:1008E40006E92582F8E622BBFE06E92582F8E22223
:0D08F400E58229F582E5833AF583E493223D
:10090100EF8DF0A4A8F0CF8CF0A428CE8DF0A42E0A
:02091100FE22C4
:10091300BC000BBE0029EF8DF084FFADF022E4CCC8
:10092300F875F008EF2FFFEE33FEEC33FCEE9DEC91
:10093300984005FCEE9DFE0FD5F0E9E4CEFD22EDD7
:10094300F8F5F0EE8420D21CFEADF075F008EF2F21
:10095300FFED33FD4007985006D5F0F222C398FD12
:050963000FD5F0EA22AF
:100BFF000206CCE493A3F8E493A34003F68001F23A
:100C0F0008DFF48029E493A3F85407240CC8C333F6
:100C1F00C4540F4420C8834004F456800146F6DFC5
:100C2F00E4800B01020408102040809013F7E47E4B
:100C3F00019360BCA3FF543F30E509541FFEE493BA
:100C4F00A360010ECF54C025E060A840B8E493A381
:100C5F00FAE493A3F8E493A3C8C582C8CAC583CAAC
:100C6F00F0A3C8C582C8CAC583CADFE9DEE780BE64
:0114180000D3
:00000001FF
